{
  "contractName": "Promissory",
  "abi": [
    {
      "constant": true,
      "inputs": [
        {
          "name": "",
          "type": "uint256"
        }
      ],
      "name": "notes",
      "outputs": [
        {
          "name": "creditor_addr",
          "type": "address"
        },
        {
          "name": "debtor_addr",
          "type": "address"
        },
        {
          "name": "note_hash",
          "type": "uint256"
        },
        {
          "name": "creditor_confirmed",
          "type": "bool"
        },
        {
          "name": "debtor_confirmed",
          "type": "bool"
        }
      ],
      "payable": false,
      "stateMutability": "view",
      "type": "function"
    },
    {
      "anonymous": false,
      "inputs": [
        {
          "indexed": false,
          "name": "creditor",
          "type": "address"
        },
        {
          "indexed": false,
          "name": "debtor",
          "type": "address"
        }
      ],
      "name": "logNewNote",
      "type": "event"
    },
    {
      "anonymous": false,
      "inputs": [
        {
          "indexed": false,
          "name": "sender",
          "type": "address"
        },
        {
          "indexed": false,
          "name": "_hash",
          "type": "uint256"
        }
      ],
      "name": "logConfirmed",
      "type": "event"
    },
    {
      "constant": false,
      "inputs": [
        {
          "name": "creditor",
          "type": "address"
        },
        {
          "name": "debtor",
          "type": "address"
        },
        {
          "name": "_hash",
          "type": "uint256"
        }
      ],
      "name": "create_note",
      "outputs": [],
      "payable": false,
      "stateMutability": "nonpayable",
      "type": "function"
    },
    {
      "constant": false,
      "inputs": [
        {
          "name": "creditor",
          "type": "address"
        },
        {
          "name": "_hash",
          "type": "uint256"
        }
      ],
      "name": "confirm_note",
      "outputs": [],
      "payable": false,
      "stateMutability": "nonpayable",
      "type": "function"
    },
    {
      "constant": true,
      "inputs": [
        {
          "name": "_hash",
          "type": "uint256"
        }
      ],
      "name": "check_note",
      "outputs": [
        {
          "name": "number",
          "type": "address"
        }
      ],
      "payable": false,
      "stateMutability": "view",
      "type": "function"
    }
  ],
  "bytecode": "0x608060405234801561001057600080fd5b50610821806100206000396000f3fe608060405234801561001057600080fd5b506004361061004c5760003560e01c806361c3a7e614610051578063840868251461010f5780638e3a82651461017d578063be5b0eae146101eb575b600080fd5b61007d6004803603602081101561006757600080fd5b8101908080359060200190929190505050610239565b604051808673ffffffffffffffffffffffffffffffffffffffff1673ffffffffffffffffffffffffffffffffffffffff1681526020018573ffffffffffffffffffffffffffffffffffffffff1673ffffffffffffffffffffffffffffffffffffffff16815260200184815260200183151515158152602001821515151581526020019550505050505060405180910390f35b61017b6004803603606081101561012557600080fd5b81019080803573ffffffffffffffffffffffffffffffffffffffff169060200190929190803573ffffffffffffffffffffffffffffffffffffffff169060200190929190803590602001909291905050506102c9565b005b6101a96004803603602081101561019357600080fd5b810190808035906020019092919050505061040b565b604051808273ffffffffffffffffffffffffffffffffffffffff1673ffffffffffffffffffffffffffffffffffffffff16815260200191505060405180910390f35b6102376004803603604081101561020157600080fd5b81019080803573ffffffffffffffffffffffffffffffffffffffff16906020019092919080359060200190929190505050610584565b005b60006020528060005260406000206000915090508060000160009054906101000a900473ffffffffffffffffffffffffffffffffffffffff16908060010160009054906101000a900473ffffffffffffffffffffffffffffffffffffffff16908060020154908060030160009054906101000a900460ff16908060030160019054906101000a900460ff16905085565b60008060008381526020019081526020016000209050838160000160006101000a81548173ffffffffffffffffffffffffffffffffffffffff021916908373ffffffffffffffffffffffffffffffffffffffff160217905550828160010160006101000a81548173ffffffffffffffffffffffffffffffffffffffff021916908373ffffffffffffffffffffffffffffffffffffffff1602179055508181600201819055507fa88742b4e4918747b9756295c7a10b249e98524d59a4b956c8b184e25178b6bc8484604051808373ffffffffffffffffffffffffffffffffffffffff1673ffffffffffffffffffffffffffffffffffffffff1681526020018273ffffffffffffffffffffffffffffffffffffffff1673ffffffffffffffffffffffffffffffffffffffff1681526020019250505060405180910390a150505050565b60008073ffffffffffffffffffffffffffffffffffffffff1660008084815260200190815260200160002060000160009054906101000a900473ffffffffffffffffffffffffffffffffffffffff1673ffffffffffffffffffffffffffffffffffffffff16141561047b57600090505b600073ffffffffffffffffffffffffffffffffffffffff1660008084815260200190815260200160002060010160009054906101000a900473ffffffffffffffffffffffffffffffffffffffff1673ffffffffffffffffffffffffffffffffffffffff1614156104ea57600090505b60008083815260200190815260200160002060030160009054906101000a900460ff168015610538575060008083815260200190815260200160002060030160019054906101000a900460ff165b1561057a5760008083815260200190815260200160002060000160009054906101000a900473ffffffffffffffffffffffffffffffffffffffff16905061057f565b600090505b919050565b3373ffffffffffffffffffffffffffffffffffffffff1660008083815260200190815260200160002060000160009054906101000a900473ffffffffffffffffffffffffffffffffffffffff1673ffffffffffffffffffffffffffffffffffffffff1614801561061a57506000151560008083815260200190815260200160002060030160009054906101000a900460ff161515145b1561065257600160008083815260200190815260200160002060030160006101000a81548160ff02191690831515021790555061071d565b3373ffffffffffffffffffffffffffffffffffffffff1660008083815260200190815260200160002060010160009054906101000a900473ffffffffffffffffffffffffffffffffffffffff1673ffffffffffffffffffffffffffffffffffffffff161480156106e857506000151560008083815260200190815260200160002060030160009054906101000a900460ff161515145b1561071c57600160008083815260200190815260200160002060030160016101000a81548160ff0219169083151502179055505b5b60008082815260200190815260200160002060030160009054906101000a900460ff16801561076b575060008082815260200190815260200160002060030160019054906101000a900460ff165b156107f1577f120069abf4bfccb3952abd11558c1b699e28b987d52c7b3a94b5a0cee3e087de8260008084815260200190815260200160002060020154604051808373ffffffffffffffffffffffffffffffffffffffff1673ffffffffffffffffffffffffffffffffffffffff1681526020018281526020019250505060405180910390a15b505056fea165627a7a72305820cf2304a8176de4c9177ad0c943299f1afa3f7337e633dff89b8d68cdd97f94e60029",
  "source": "pragma solidity ^0.5.1;\n\ncontract Promissory{\n    \n    struct Promissory_note {\n        address creditor_addr;\n        address debtor_addr;\n        uint256 note_hash;\n        bool creditor_confirmed;\n        bool debtor_confirmed;\n    }\n    \n    mapping(uint => Promissory_note) public notes;\n    \n    event logNewNote(address creditor, address debtor);\n    event logConfirmed(address sender, uint256 _hash);\n    \n    \n    function create_note(address creditor, address debtor, uint256 _hash) public {\n        //require(msg.sender != address(0));\n        //require(debtor != address(0));\n        Promissory_note storage newNote = notes[_hash];\n        newNote.creditor_addr = creditor;\n        newNote.debtor_addr = debtor;\n        newNote.note_hash = _hash;\n        emit logNewNote(creditor, debtor);\n    }\n    \n    function confirm_note(address creditor,uint256 _hash) public{\n        if(notes[_hash].creditor_addr == msg.sender && notes[_hash].creditor_confirmed == false){\n            //require(notes[creditor].creditor_confirmed == false);\n            notes[_hash].creditor_confirmed = true;\n        }\n        else if(notes[_hash].debtor_addr == msg.sender && notes[_hash].creditor_confirmed == false){\n            //require(notes[creditor].creditor_confirmed == false);\n            notes[_hash].debtor_confirmed = true;\n        }\n        if(notes[_hash].creditor_confirmed && notes[_hash].debtor_confirmed){\n            emit logConfirmed(creditor, notes[_hash].note_hash);\n        }\n    }\n    \n    function check_note(uint256 _hash) public view returns (address number){\n        //require(creditor != address(0));\n        //require(debtor != address(0));\n        if(notes[_hash].creditor_addr == address(0)) number = address(0);\n        if(notes[_hash].debtor_addr == address(0)) number = address(0);\n        if(notes[_hash].creditor_confirmed && notes[_hash].debtor_confirmed) number = notes[_hash].creditor_addr;\n        else number = address(0);\n    }\n    \n}\n",
  "sourcePath": "/home/zellyjackie/VScode/truffle/contracts/note.sol",
  "compiler": {
    "name": "solc",
    "version": "0.5.8+commit.23d335f2.Emscripten.clang"
  },
  "schemaVersion": "3.0.16",
  "updatedAt": "2019-11-03T17:43:53.430Z",
  "devdoc": {
    "methods": {}
  },
  "userdoc": {
    "methods": {}
  }
}